{
  "contractName": "DataX",
  "abi": [
    {
      "constant": true,
      "inputs": [],
      "name": "dataValue",
      "outputs": [
        {
          "name": "",
          "type": "uint256"
        }
      ],
      "payable": false,
      "stateMutability": "view",
      "type": "function"
    },
    {
      "inputs": [],
      "payable": false,
      "stateMutability": "nonpayable",
      "type": "constructor"
    },
    {
      "payable": true,
      "stateMutability": "payable",
      "type": "fallback"
    },
    {
      "constant": false,
      "inputs": [
        {
          "name": "proof",
          "type": "bytes32"
        }
      ],
      "name": "storeProof",
      "outputs": [],
      "payable": false,
      "stateMutability": "nonpayable",
      "type": "function"
    },
    {
      "constant": true,
      "inputs": [
        {
          "name": "amount",
          "type": "uint256"
        }
      ],
      "name": "changeDataValue",
      "outputs": [
        {
          "name": "",
          "type": "address"
        }
      ],
      "payable": false,
      "stateMutability": "view",
      "type": "function"
    },
    {
      "constant": false,
      "inputs": [
        {
          "name": "document",
          "type": "string"
        },
        {
          "name": "sender",
          "type": "address"
        }
      ],
      "name": "notarize",
      "outputs": [],
      "payable": false,
      "stateMutability": "nonpayable",
      "type": "function"
    },
    {
      "constant": true,
      "inputs": [
        {
          "name": "document",
          "type": "string"
        }
      ],
      "name": "proofFor",
      "outputs": [
        {
          "name": "",
          "type": "bytes32"
        }
      ],
      "payable": false,
      "stateMutability": "view",
      "type": "function"
    },
    {
      "constant": true,
      "inputs": [
        {
          "name": "document",
          "type": "string"
        }
      ],
      "name": "checkDocument",
      "outputs": [
        {
          "name": "",
          "type": "bool"
        }
      ],
      "payable": false,
      "stateMutability": "view",
      "type": "function"
    },
    {
      "constant": true,
      "inputs": [
        {
          "name": "proof",
          "type": "bytes32"
        }
      ],
      "name": "hasProof",
      "outputs": [
        {
          "name": "",
          "type": "bool"
        }
      ],
      "payable": false,
      "stateMutability": "view",
      "type": "function"
    }
  ],
  "bytecode": "0x60606040526014600155341561001457600080fd5b336000806101000a81548173ffffffffffffffffffffffffffffffffffffffff021916908373ffffffffffffffffffffffffffffffffffffffff1602179055506104c8806100636000396000f300606060405260043610610083576000357c0100000000000000000000000000000000000000000000000000000000900463ffffffff16806313a55caf1461008557806353fb9233146100ae5780638952877b14610123578063d4ed89791461014a578063e3d1e6d6146101ad578063f6c1acdf146101ec578063fbd821f914610265575b005b341561009057600080fd5b6100986102e1565b6040518082815260200191505060405180910390f35b34156100b957600080fd5b610109600480803590602001908201803590602001908080601f016020809104026020016040519081016040528093929190818152602001838380828437820191505050505050919050506102e7565b604051808215151515815260200191505060405180910390f35b341561012e57600080fd5b610148600480803560001916906020019091905050610306565b005b341561015557600080fd5b61016b600480803590602001909190505061033d565b604051808273ffffffffffffffffffffffffffffffffffffffff1673ffffffffffffffffffffffffffffffffffffffff16815260200191505060405180910390f35b34156101b857600080fd5b6101d2600480803560001916906020019091905050610378565b604051808215151515815260200191505060405180910390f35b34156101f757600080fd5b610247600480803590602001908201803590602001908080601f016020809104026020016040519081016040528093929190818152602001838380828437820191505050505050919050506103aa565b60405180826000191660001916815260200191505060405180910390f35b341561027057600080fd5b6102df600480803590602001908201803590602001908080601f0160208091040260200160405190810160405280939291908181526020018383808284378201915050505050509190803573ffffffffffffffffffffffffffffffffffffffff1690602001909190505061043f565b005b60015481565b6000806102f3836103aa565b90506102fe81610378565b915050919050565b600160026000836000191660001916815260200190815260200160002060006101000a81548160ff02191690831515021790555050565b6000816001600082825401925050819055506000809054906101000a900473ffffffffffffffffffffffffffffffffffffffff169050919050565b600060026000836000191660001916815260200190815260200160002060009054906101000a900460ff169050919050565b60006002826000604051602001526040518082805190602001908083835b6020831015156103ed57805182526020820191506020810190506020830392506103c8565b6001836020036101000a03801982511681845116808217855250505050505090500191505060206040518083038160008661646e5a03f1151561042f57600080fd5b5050604051805190509050919050565b600061044a836103aa565b905061045581610306565b8173ffffffffffffffffffffffffffffffffffffffff166108fc6001549081150290604051600060405180830381858888f19350505050151561049757600080fd5b5050505600a165627a7a72305820c4fd1ccd977b829484a65c368ada1ae5eed8657c2ada41a79180c933d1d201830029",
  "source": "pragma solidity ^0.4.19;\n\n// Proof of Existence contract, version 3\ncontract DataX {\n  \n  address owner;\n  uint public dataValue = 20;\n  mapping (bytes32 => bool) private proofs;\n  mapping(address => uint) private balances;\n\n  function () payable {\n\n  }\n\n  function DataX () {\n    owner = msg.sender;\n  }\n\n  // store a proof of existence in the contract state\n  function storeProof(bytes32 proof) {\n    proofs[proof] = true;\n  }\n  \n  function changeDataValue(uint amount) constant returns  (address){\n    dataValue += amount;\n    return owner;\n  }\n\n  // calculate and store the proof for a document\n  function notarize(string document, address sender) {\n    var proof = proofFor(document);\n    storeProof(proof);\n    sender.transfer(dataValue);\n  }\n  \n  // helper function to get a document's sha256\n  function proofFor(string document) constant returns (bytes32) {\n    return sha256(document);\n  }\n  \n  // check if a document has been notarized\n  function checkDocument(string document) constant returns (bool) {\n    var proof = proofFor(document);\n    return hasProof(proof);\n  }\n  \n  // returns true if proof is stored\n  function hasProof(bytes32 proof) constant returns(bool) {\n    return proofs[proof];\n  }\n\n}",
  "sourcePath": "/mnt/c/Users/Admin/Documents/ETHUofTWebBackend/EthHacks/contracts/DataX.sol",
  "compiler": {
    "name": "solc",
    "version": "0.4.19+commit.c4cbbb05.Emscripten.clang"
  },
  "schemaVersion": "2.0.0",
  "updatedAt": "2018-03-25T08:36:09.131Z"
}